:100000000C94BC000C94D9000C94D9000C94D90029
:100010000C94D9000C94D9000C94D9000C94D900FC
:100020000C94D9000C94D9000C943A050C94A605B4
:100030000C94D9000C94D9000C94D9000C94D900DC
:100040000C94D9000C94D9000C94D9000C94D900CC
:100050000C94D9000C94D9000C94D9000C94D900BC
:100060000C94D9000C94D9000C94D9000C94D900AC
:100070000C94D9000C94D9000C94D9000C94D9009C
:100080000C94D9000C94D9000C94D9000C94D9008C
:100090000C94D9000C94D9000C94D9000C94D9007C
:1000A0000C94D9000C94D9000C94D90000010000E4
:1000B000E3001200020000F50022002200001701F8
:1000C0003F00210000070109000300005601040160
:1000D0000309045A010A0203090466011000000121
:1000E000C106001201000200000020C0167C0400BE
:1000F000010102000109022200010100C0320904CD
:1001000000000103010100092111010001223F004B
:100110000705830308000105010906A10175019582
:1001200008050719E029E7150025018102950175E9
:1001300008810395057501050819012905910295A6
:1001400001750391039506750815002568050719C3
:100150000029688100C0040309040A036B007300CE
:1001600072006D00000010035200650064006F0013
:10017000780020003100000011241FBECFEFDAE02C
:10018000DEBFCDBF11E0A0E0B1E0E4E7F0E102C0E6
:1001900005900D92AE3AB107D9F711E0AEEAB1E0A1
:1001A00001C01D92AB3CB107E1F70E94DB000C944B
:1001B00038080C940000CF93DF938091D7008160C2
:1001C0008093D7000E94B10483EB94E09093C00128
:1001D0008093BF0100D080E091E0ADB7BEB712962A
:1001E0009C938E9311970E947F040F900F900E9412
:1001F000D8040E94EF048823E1F380E197E220E92C
:1002000031E0F9013197F1F70197D9F70E94D60251
:1002100082E063E00E948A0281E591E00E94E401AD
:1002200086E591E00E94C50200D088E191E0EDB73B
:10023000FEB7928381830E947F040F900F900E94EB
:100240003F0200D000D0EDB7FEB7319620E231E09A
:10025000ADB7BEB712963C932E931197828313824B
:100260000E947F040F900F900F900F90CCE2D1E08E
:100270000E944D028823E1F38BEB91E00E9459022A
:10028000EDB7FEB738970FB6F894FEBF0FBEEDBFBF
:100290003196ADB7BEB71296DC93CE93119780918D
:1002A000BB01828313828091BC018483158280917B
:1002B000BD01868317820E947F04EDB7FEB7389692
:1002C0000FB6F894FEBF0FBEEDBF8091BB016091E9
:1002D000BC014091BD010E943007CACFEF92FF924E
:1002E0000F931F93CF93DF93182F80E00E94A204F7
:1002F00000E0C7E0D0E0E12EFF24C7010C2E02C0D1
:10030000959587950A94E2F780FF02C081E001C0CD
:1003100080E00E94A80481E00E94A204000F0E94D5
:10032000AE048111016080E00E94A20421978FEF4A
:10033000CF3FD80711F7802FCDB7DEB7E6E00C949A
:1003400029080F931F93182F062F80E00E949C040A
:100350001F71812F80620E946E01802F0E946E01AA
:1003600081E00E949C041F910F9108950F931F93A9
:10037000CF93DF93062FEC0110E004C089910E9417
:100380006E011F5F1017D0F3DF91CF911F910F9176
:100390000895EF92FF920F931F93182F7B01042F64
:1003A00080E00E949C041F71812F80620E946E0178
:1003B000C701602F0E94B60181E00E949C041F913A
:1003C0000F91FF90EF9008950F931F938C018AE097
:1003D000B80145E00E94C90180E1B80145E00E94F2
:1003E000C9011F910F910895A0E0B0E0EAEFF1E09C
:1003F0000C940C087B01D42E8C01C0E0D0E00AC024
:10040000F80181918F010E946E01F701EC0FFD1F31
:1004100080832196CD15A0F3CDB7DEB7E7E00C942D
:100420002808EF92FF920F931F93182F7B01042F40
:1004300080E00E949C04812F8F710E946E01C70191
:10044000B701402F0E94F40181E00E949C041F919B
:100450000F91FF90EF900895A1E0B0E0E2E3F2E0A9
:100460000C94110887E1BE016F5F7F4F41E00E944D
:100470001102898181702196E2E00C942D081F936E
:1004800080E00E949C048FEF0E946E01182F81E093
:100490000E949C04812F1F9108950E943F0286FDB7
:1004A00005C00E942C0290E0882309F491E0892F76
:1004B00008950F931F938C0180E00E949C0481E6B5
:1004C0000E946E01C801B8014091BE010E94F40172
:1004D00081E00E949C0487E060E40E94A1011F91DA
:1004E0000F91089580E00E949C0482EE0E946E01AC
:1004F00081E00E949C0487E060E70E94A10180E007
:100500000E94960480E06FE00E94A10181E00E94B9
:1005100096040895982F6093BE0185E0692F0E948C
:10052000A10181E160E00E94A10182E16091BE0130
:100530000E94A10183E160E00E94A10184E160E0EA
:100540000E94A10185E160E00E94A10186E160E0D6
:100550000E94A10186E066E00E94A10180E06CE0BB
:100560000E94A10181E063E00E94A10182E063E0BA
:100570000E94A10184E06FE30E94A1018CE160E090
:100580000E94A1010E94720208950F931F938C0193
:1005900080E00E9496048BE0B80145E00E94C9010A
:1005A00081E00E9496041F910F9108950E9490048B
:1005B00080E00E94960481E00E949C040895E091EE
:1005C000AE01F091AF01309731F08193F093AF011C
:1005D000E093AE010895E091BF01F091C001309722
:1005E00009F009950895CF93DF93EC0103C021969C
:1005F0000E94DF0288818823D1F7DF91CF9108958F
:10060000A4E1B0E0E6E0F3E00C9401082C017B01EA
:1006100004C082E090E0E80EF91ED2018C9188239C
:1006200009F469C10894411C511C853209F0A6C027
:10063000F201B1902F01F0E3BF1639F4D201BD9061
:100640002D01F1E08F2E912C0CC0BDE2BB1619F0EC
:100650008824992406C0F201B1902F01E2E08E2E89
:10066000912C6624772417C0C30173E0880F991F6B
:100670007A95E1F7660C771C680E791E8B2D992709
:1006800087FD9095680E791E80ED9FEF680E791EAC
:10069000D201BD902D018B2D80538A3028F3BCE60A
:1006A000BB1619F0ECE4BE1639F484E090E0882A19
:1006B000992AD201BD902D01BB2009F41CC1B0E6DE
:1006C000BB1514F0EB2D02C0EB2DE052EF34A1F07E
:1006D000E0354CF4E33409F444C0E43481F0E2340E
:1006E00009F04BC04EC0E53551F0E83509F442C081
:1006F000E33509F042C006C028E030E044C02AE0FB
:1007000030E041C0F701A080B18000E010E002C0FD
:100710000F5F1F4FF501E00FF11F80818823C1F7A4
:1007200004C080E20E94DF0205C052E0C52ED12C39
:10073000C820D920C114D10439F40F5F1F4FC8015C
:1007400001978615970568F3C5010E94F30205C05D
:1007500080E20E94DF020F5F1F4F06151705C0F3EE
:1007600058CF87010E5F1F4FD7018C910E94DF0287
:10077000780153CF20E130E006C08B2D0E94DF02CC
:100780004CCF22E030E082FE0DC044E0242E312C1C
:100790002E0C3F1CD701ED90FD900D911C91E4347F
:1007A00011F513C0C7010296D7016D917C91E43415
:1007B00039F41C017B010027F7FC0095102F05C0C0
:1007C0001C017B0100E010E00EC017FF0CC010956B
:1007D0000095F094E094E11CF11C011D111DE8E06E
:1007E000F0E08E2A9F2ACC24DD24C901A0E0B0E0ED
:1007F000898B9A8BAB8BBC8BC801B70129893A894D
:100800004B895C890E94DF07A62EC801B7012989A0
:100810003A894B895C890E94DF07C901DA017C01B2
:100820008D01E9E0EA153CF4F8E7BF1611F027E086
:1008300001C027E2A20EE1E0F0E0EC0FFD1FEC0D9D
:10084000FD1D20E3A20EA0820894C11CD11C0097BC
:10085000A105B10521F080E1C816D10469F6860131
:1008600083FE0AC0E1E0F0E0EC0FFD1FEC0DFD1D82
:100870009DE290830F5F1F4F80FC03C030E2B32ED8
:1008800002C020E3B22E680192E0E92EF12CE820AC
:10089000F92003C08B2D0E94DF02E114F10441F422
:1008A0000894C11CD11CC60101978615970590F3C9
:1008B0000150104081E0E82EF12CEC0EFD1EE00E00
:1008C000F11E0F5F1F4F01501040D7018C910E9405
:1008D000DF020894E108F10801151105A1F706C02F
:1008E00080E20E94DF020894C11CD11CC614D70408
:1008F000B8F3710192CE6496E2E10C941D08A0E079
:10090000B0E0E5E8F4E00C941108FE013596819121
:100910009191BF010E9400032096E2E00C942D0803
:10092000279A209A219A229A23980895882311F0D1
:100930002F9A08952F980895882311F0289A0895E2
:1009400028980895882311F0299A089529980895E0
:10095000882311F02A9A08952A98089583B18870FF
:100960000895539A08955B98E0E9F1E03197F1F723
:1009700020E030E0482F50E060E971E0CA01022E2B
:1009800002C0959587950A94E2F780FF02C05B9AB2
:1009900001C05B98CB010197F1F72F5F3F4F2830E3
:1009A000310561F75B9A80E991E00197F1F70895CD
:1009B00081E08093D70080EA8093D80082E189BDEE
:1009C00009B400FEFDCF80E98093D8001092E000CA
:1009D0001092B8018CE08093E200789408958091A1
:1009E000B80108958091B801882309F441C02FB758
:1009F000F89483E08093E9009091E4009E5C33E0FA
:100A00008091E80085FD0EC02FBF8091B80188233A
:100A100079F18091E400891759F12FB7F894309358
:100A2000E900EECF8091B0018093F1001092F100C7
:100A30008091B1018093F1008091B2018093F10027
:100A40008091B3018093F1008091B4018093F10013
:100A50008091B5018093F1008091B6018093F100FF
:100A60008AE38093E8001092B9012FBF80E00895D7
:100A70008FEF08951F920F920FB60F9211242F93AC
:100A80008F939F938091E1001092E100982F83FF54
:100A90000FC01092E90081E08093EB001092EC000F
:100AA00082E28093ED0088E08093F0001092B8011C
:100AB00092FF44C08091B801882309F43FC020917F
:100AC0005B012223D9F18091BA018F5F8093BA0133
:100AD00090E083709070892B89F583E08093E90022
:100AE0008091E80085FF2AC08091B9018F5F8093D3
:100AF000B901821719F51092B9018091B001809364
:100B0000F1001092F1008091B1018093F100809189
:100B1000B2018093F1008091B3018093F100809144
:100B2000B4018093F1008091B5018093F100809130
:100B3000B6018093F1008AE38093E8009F918F9142
:100B40002F910F900FBE0F901F9018951F920F922C
:100B50000FB60F9211240F931F932F933F934F9330
:100B60005F936F937F938F939F93AF93BF93EF9315
:100B7000FF931092E9008091E80083FF5BC14091F0
:100B8000F1003091F1008091F100682F70E0209128
:100B9000F100922F80E0682B792B8091F100A82F33
:100BA000B0E02091F100922F80E0A82BB92B10919A
:100BB000F1000091F10082EF8093E800363009F0F7
:100BC0005AC023EB30E0A90145505040F901379756
:100BD000859194918617970701F5FA018591949173
:100BE0008A179B07D1F49A012E5F3F4FF901659157
:100BF00074912E5F3F4FF9014491212F30E0902FE7
:100C000080E0282B392B2F3F310519F010F02FEF02
:100C100030E0241758F4422F09C0295F3F4F495F45
:100C20005F4FF0E0243E3F0789F604C15EEF8091FC
:100C3000E800282F30E0C90185709070892BB9F346
:100C400022FDFBC0342F413208F030E2232FCB01CC
:100C500006C0FC010196E491E093F10021502223AB
:100C6000C1F7630F711D431B5093E8004423F9F64D
:100C70003032E9F2E2C0353061F48EEF8093E80063
:100C80008091E80080FFFCCF862F80688093E3008E
:100C9000D4C0393031F5442309F071C06093B801F4
:100CA0008EEF8093E8008DED90E021E02093E90045
:100CB000FC010196E491E093EB00EE2369F0AC01B6
:100CC0004F5F5F4FFC0184918093EC00CA01019655
:100CD000FA0134913093ED002F5F253039F78EE122
:100CE00049C0383051F4403809F049C08091E800DB
:100CF00080FFFCCF8091B8017BC03323D1F4809179
:100D0000E80080FFFCCF423811F080E00DC0A093D6
:100D1000E9008091EB0090E025E0969587952A9573
:100D2000E1F781701092E9008093F1001092F100D8
:100D30007DC0313011F0333011F5423001F56115CD
:100D40007105E9F42A2F2F77822F81508430B8F46F
:100D50008EEF8093E8002093E900333009F46AC0F5
:100D600089E18093EB0081E090E002C0880F991F39
:100D70002A95E2F78093EA001092EA005EC0AB2B5E
:100D800009F058C0413AB9F5313009F58091E800D1
:100D900080FFFCCF8091B0018093F1001092F100B0
:100DA0008091B1018093F1008091B2018093F100B4
:100DB0008091B3018093F1008091B4018093F100A0
:100DC0008091B5018093F1008091B60111C032305D
:100DD00039F48091E80080FFFCCF80915B0108C06E
:100DE000333041F58091E80080FFFCCF80915C01B9
:100DF0008093F1001BC04132E9F4393061F48091F5
:100E0000E80082FFFCCF8091F1008093B7018BEF67
:100E10008093E8000BC03A3029F470935B01109284
:100E2000B90104C03B3031F460935C018EEF8093D4
:100E3000E80003C081E28093EB00FF91EF91BF9146
:100E4000AF919F918F917F916F915F914F913F9162
:100E50002F911F910F910F900FBE0F901F9018951B
:100E60006F927F928F929F92AF92BF92DF92EF929A
:100E7000FF920F931F93CF93DF93D42E882311F00B
:100E800025E001C020E0062F10E0020F111DF8013F
:100E9000EF53FE4F80818D25260FC22FD0E023E037
:100EA000CC0FDD1F2A95E1F7C35ADE4FEE24FF2455
:100EB000A82EBB2491E0692E712C8BE3882E81E053
:100EC000982EC5010E2C02C0959587950A94E2F7DD
:100ED00080FF5AC0C3010E2C02C0880F991F0A94CC
:100EE000E2F72D2D2823988197FF0CC09F778091E2
:100EF000B001222311F0892B02C0909589238093A1
:100F0000B00140C0222319F4492F90E001C040E015
:100F100020E030E0F901EF54FE4F8081841769F53D
:100F200090838DB79EB70A970FB6F8949EBF0FBEF9
:100F30008DBFEDB7FEB73196ADB7BEB712969C9296
:100F40008E9211978091B101828313828091B201B8
:100F5000848315828091B301868317828091B401C6
:100F6000808711860E947F04EDB7FEB73A960FB6D0
:100F7000F894FEBF0FBEEDBF05C02F5F3F4F263078
:100F8000310541F60E94F2040894E11CF11C2196FF
:100F9000F8E0EF16F10409F094CF0F531E4FD8017B
:100FA000DC92DF91CF911F910F91FF90EF90DF9036
:100FB000BF90AF909F908F907F906F900895A1E227
:100FC0001A2EAA1BBB1BFD010DC0AA1FBB1FEE1FC3
:100FD000FF1FA217B307E407F50720F0A21BB30B0E
:100FE000E40BF50B661F771F881F991F1A9469F78A
:100FF00060957095809590959B01AC01BD01CF01E6
:1010000008952F923F924F925F926F927F928F92AC
:101010009F92AF92BF92CF92DF92EF92FF920F9387
:101020001F93CF93DF93CDB7DEB7CA1BDB0B0FB691
:10103000F894DEBF0FBECDBF09942A88398848884E
:101040005F846E847D848C849B84AA84B984C884E4
:10105000DF80EE80FD800C811B81AA81B981CE0FDB
:10106000D11D0FB6F894DEBF0FBECDBFED010895C0
:04107000F894FFCF22
:101074000D0A496E697469616C6973696E672055FC
:1010840053422E2E2E0D0A0052656164790D0A001A
:101094007374617475733D25640D0A00676F742061
:1010A40025642025642025640D0A0025303264203F
:1010B40025303264202530326420253032640D0A14
:1010C40000D7D7D7D7D7BA5EBA5E007D01003122E8
:1010D40021201F1E2900321715081A142B002F0A6D
:1010E400090716042A88000519061B1D8281842C11
:1010F400000000000000352324252627004C2E1C68
:10110400180C12132D4B300B0D0E0F33344E0011EF
:0E11140010365237380028824A50514F4D0095
:00000001FF
