:100000000C9456000C9473000C9473000C947300C1
:100010000C9473000C9473000C9473000C94730094
:100020000C9473000C9473000C9473000C94730084
:100030000C9473000C9473000C9473000C94730074
:100040000C9473000C9473000C9473000C94730064
:100050000C9473000C9473000C9473000C94730054
:100060000C9473000C9473000C9473000C94730044
:100070000C9473000C9473000C9473000C94730034
:100080000C9473000C9473000C9473000C94730024
:100090000C9473000C9473000C9473000C94730014
:1000A0000C9473000C9473000C94730011241FBE05
:1000B000CFEFDAE0DEBFCDBF11E0A0E0B1E0ECE9C8
:1000C000F9E002C005900D92AA33B107D9F711E00B
:1000D000AAE3B1E001C01D92AD34B107E1F70E947F
:1000E00075000C94CC040C940000A0E0B0E0EBE7A9
:1000F000F0E00C949F040E944C048EE494E09093F2
:1001000047018093460100D000D0EDB7FEB731968D
:1001100080E091E0ADB7BEB712969C938E93119795
:1001200080913A01828313820E94F20380913A0106
:10013000809333010F900F900F900F900E9449020F
:1001400082E063E00E94D8018AE291E00E949A0175
:100150008FE291E00E9438020E94240480913A01CB
:10016000817080933D0110923E0110923F010E94E8
:10017000AA0100D000D0EDB7FEB731962CE031E0F7
:10018000ADB7BEB712963C932E931197828313821C
:100190000E94F2030F900F900F900F9098E1C92EDC
:1001A00091E0D92E0E94290480E4E82E81E0F82E07
:1001B00008E411E0C0E0D0E0F7018081D8019C9113
:1001C000891771F1EDB7FEB738970FB6F894FEBFF7
:1001D0000FBEEDBF3196ADB7BEB71296DC92CE9290
:1001E0001197C283D38384831582968317820E94DA
:1001F000F203C0933E01F801808180933F012DB747
:100200003EB7285F3F4F0FB6F8943EBF0FBE2DBFDD
:100210008DE391E00E9413020E94B8018823E1F768
:10022000D8018D918D01F70181937F012196C53011
:10023000D10511F6B7CFEF92FF920F931F93CF9393
:10024000DF93182F80E00E94150400E0C7E0D0E0A3
:10025000E12EFF24C7010C2E02C0959587950A94C4
:10026000E2F780FF02C081E001C080E00E941B0431
:1002700081E00E941504000F0E9421048111016099
:1002800080E00E94150421978FEFCF3FD80711F728
:10029000802FCDB7DEB7E6E00C94BD040F931F931B
:1002A000182F062F80E00E940F041F71812F80629B
:1002B0000E941B01802F0E941B0181E00E940F04FD
:1002C0001F910F91089587E060E70E944E0180E042
:1002D0006EE00E944E0108950F931F93CF93DF931A
:1002E000062FEC0110E004C089910E941B011F5FE2
:1002F0001017D0F3DF91CF911F910F910895EF92D6
:10030000FF920F931F93182F7B01042F80E00E9410
:100310000F041F71812F80620E941B01C701602F93
:100320000E946C0181E00E940F041F910F91FF90C9
:10033000EF9008950F931F938C018AE0B80145E078
:100340000E947F0180E1B80145E00E947F011F917A
:100350000F9108951F9380E00E940F048FEF0E9479
:100360001B01182F81E00E940F04812F1F91089517
:100370000E94AA0190E0807309F491E0892F08950A
:1003800080E00E940F0482EE0E941B0181E00E9427
:100390000F0487E060E70E944E0180E00E9409049C
:1003A00080E06FE00E944E0181E00E940904089500
:1003B000982F6093450185E0692F0E944E0181E1ED
:1003C00060E00E944E0182E1609145010E944E0171
:1003D00083E160E00E944E0184E160E00E944E01F2
:1003E00085E160E00E944E0186E160E00E944E01DE
:1003F00086E066E00E944E0180E06CE00E944E01C3
:1004000081E063E00E944E0182E063E00E944E01C1
:1004100084E06FE30E944E018CE160E00E944E0197
:100420000E94C00108950F931F938C0180E00E94E9
:1004300009040E94630180E00E940F0481EE0E9483
:100440001B0181E00E940F0480E00E940F0480EAFB
:100450000E941B01C801609145010E946C0181E06E
:100460000E940F0481E00E9409041F910F910895DA
:100470000F931F938C0180E00E9409048BE0B80168
:1004800045E00E947F0181E00E9409041F910F91C5
:1004900008950E94030480E00E94090481E00E9404
:1004A0000F040895E0913B01F0913C01309731F049
:1004B0008193F0933C01E0933B010895E091460164
:1004C000F0914701309709F009950895CF93DF9394
:1004D000EC0103C021960E94520288818823D1F743
:1004E000DF91CF910895A4E1B0E0E9E7F2E00C9448
:1004F00095042C017B0104C082E090E0E80EF91E17
:10050000D2018C91882309F469C10894411C511CC3
:10051000853209F0A6C0F201B1902F01F0E3BF16B9
:1005200039F4D201BD902D01F1E08F2E912C0CC039
:10053000BDE2BB1619F08824992406C0F201B190DF
:100540002F01E2E08E2E912C6624772417C0C30180
:1005500073E0880F991F7A95E1F7660C771C680E97
:10056000791E8B2D992787FD9095680E791E80ED59
:100570009FEF680E791ED201BD902D018B2D805307
:100580008A3028F3BCE6BB1619F0ECE4BE1639F449
:1005900084E090E0882A992AD201BD902D01BB20E9
:1005A00009F41CC1B0E6BB1514F0EB2D02C0EB2D15
:1005B000E052EF34A1F0E0354CF4E33409F444C0E8
:1005C000E43481F0E23409F04BC04EC0E53551F01F
:1005D000E83509F442C0E33509F042C006C028E01E
:1005E00030E044C02AE030E041C0F701A080B18093
:1005F00000E010E002C00F5F1F4FF501E00FF11F98
:1006000080818823C1F704C080E20E94520205C0A5
:1006100052E0C52ED12CC820D920C114D10439F400
:100620000F5F1F4FC80101978615970568F3C50135
:100630000E94660205C080E20E9452020F5F1F4FB7
:1006400006151705C0F358CF87010E5F1F4FD7015E
:100650008C910E945202780153CF20E130E006C015
:100660008B2D0E9452024CCF22E030E082FE0DC062
:1006700044E0242E312C2E0C3F1CD701ED90FD9030
:100680000D911C91E43411F513C0C7010296D701F6
:100690006D917C91E43439F41C017B010027F7FC57
:1006A0000095102F05C01C017B0100E010E00EC07A
:1006B00017FF0CC010950095F094E094E11CF11C1C
:1006C000011D111DE8E0F0E08E2A9F2ACC24DD24D4
:1006D000C901A0E0B0E0898B9A8BAB8BBC8BC801C1
:1006E000B70129893A894B895C890E947304A62E37
:1006F000C801B70129893A894B895C890E94730432
:10070000C901DA017C018D01E9E0EA153CF4F8E762
:10071000BF1611F027E001C027E2A20EE1E0F0E0F1
:10072000EC0FFD1FEC0DFD1D20E3A20EA08208942E
:10073000C11CD11C0097A105B10521F080E1C816AC
:10074000D10469F6860183FE0AC0E1E0F0E0EC0F17
:10075000FD1FEC0DFD1D9DE290830F5F1F4F80FC80
:1007600003C030E2B32E02C020E3B22E680192E053
:10077000E92EF12CE820F92003C08B2D0E945202B3
:10078000E114F10441F40894C11CD11CC601019785
:100790008615970590F30150104081E0E82EF12C6A
:1007A000EC0EFD1EE00EF11E0F5F1F4F01501040BA
:1007B000D7018C910E9452020894E108F1080115BA
:1007C0001105A1F706C080E20E9452020894C11CE4
:1007D000D11CC614D704B8F3710192CE6496E2E13D
:1007E0000C94B104A0E0B0E0E8EFF3E00C94A504B1
:1007F000FE01359681919191BF010E94730220966E
:10080000E2E00C94C104849A859A869A879A3F986C
:100810000895882311F08C9A08958C980895882360
:1008200011F08D9A08958D980895882311F08E9A6D
:1008300008958E980895882311F08F9A08958F98BF
:10084000089586B18078089514B88AB183678AB90B
:10085000089540E050E061E070E030E52BB1FA012E
:10086000EC5CFE4FCB01008002C0880F991F0A94F8
:10087000E2F7282B2BB9832F8A95F1F783B1FA0180
:10088000E85BFE4F80838BB18C788BB94F5F5F4FF5
:100890004530510519F70895539A08955B98E8EC8F
:1008A000F0E03197F1F720E030E0482F50E068ECBD
:1008B00070E0CA01022E02C0959587950A94E2F76E
:1008C00080FF02C05B9A01C05B98CB010197F1F7F2
:1008D0002F5F3F4F2830310561F75B9A88EC90E03D
:1008E0000197F1F70895A1E21A2EAA1BBB1BFD0187
:1008F0000DC0AA1FBB1FEE1FFF1FA217B307E407FF
:10090000F50720F0A21BB30BE40BF50B661F771F56
:10091000881F991F1A9469F7609570958095909536
:100920009B01AC01BD01CF0108952F923F924F92E0
:100930005F926F927F928F929F92AF92BF92CF926F
:10094000DF92EF92FF920F931F93CF93DF93CDB778
:10095000DEB7CA1BDB0B0FB6F894DEBF0FBECDBFF0
:1009600009942A88398848885F846E847D848C84C1
:100970009B84AA84B984C884DF80EE80FD800C81CA
:100980001B81AA81B981CE0FD11D0FB6F894DEBFAD
:0C0990000FBECDBFED010895F894FFCF1D
:10099C000D0A48616E642025640D0A00737461743D
:1009AC0075733D25640D0A002564202530386220BE
:1009BC002D3E20253038620D0A00BA5EBA5E001159
:0A09CC002358130000010405060083
:00000001FF
