:10000000BFC00000D8C00000D6C00000D4C00000AF
:10001000D2C00000D0C00000CEC00000CCC00000A4
:10002000CAC00000C8C00000CDC1000037C2000037
:10003000C2C00000C0C00000BEC00000BCC00000C4
:10004000BAC00000B8C00000B6C00000B4C00000D4
:10005000B2C00000B0C00000AEC00000ADC00000E3
:10006000AAC00000A8C00000A6C00000A4C00000F4
:10007000A2C00000A0C000009EC000009CC0000004
:100080009AC0000098C0000096C0000094C0000014
:1000900092C0000090C000008EC000008CC0000024
:1000A0008AC0000088C0000086C000000001000077
:1000B000E3001200020000F50022002200001701F8
:1000C0003F00210000070109000300005601040160
:1000D0000309045A0110020309046C011200000113
:1000E000C106001201000200000020C0167C0400BE
:1000F000010102000109022200010100C0320904CD
:1001000000000103010100092111010001223F004B
:100110000705830308000105010906A10175019582
:1001200008050719E029E7150025018102950175E9
:1001300008810395057501050819012905910295A6
:1001400001750391039506750815002568050719C3
:100150000029688100C00403090410034D006600F3
:1001600067004E0061006D006500000012034B0047
:100170006500790062006F00610072006400000099
:1001800011241FBECFEFDAE0DEBFCDBF11E0A0E04B
:10019000B1E0E4EBF7E002C005900D92AC30B1079E
:1001A000D9F711E0ACE0B1E001C01D92A931B1076F
:1001B000E1F737D0FDC224CF1F920F920FB60F92F6
:1001C00011242F933F934F935F936F937F938F935C
:1001D0009F93AF93BF93EF93FF9380910C01909106
:1001E0000D01019690930D0180930C01895E914061
:1001F00038F010920D0110920C018CE260E0D5D025
:10020000FF91EF91BF91AF919F918F917F916F91EE
:100210005F914F913F912F910F900FBE0F901F90C4
:100220001895AF92BF92DF92EF92FF920F931F93B8
:10023000CF93DF9380E880936100109261001AB839
:1002400014B88FEF85B98BB94ED064D08823E9F309
:1002500080E197E220E931E0F9013197F1F7019768
:10026000D9F714BC85E085BD81E080936E00FF2442
:10027000FA940FEF80E4A82E8FE1B82ED3B0E9B046
:10028000C0E0D1E011E090E0812F8D2151F4812F69
:100290008F2139F085E062E088D0888160E085D0E8
:1002A00091E0812F8E2151F4812F802339F087E056
:1002B00062E07BD0888160E078D091E0219681E097
:1002C000C830D80711F0110FDFCF992331F0F8941F
:1002D00010920D0110920C017894C5010197F1F76D
:1002E0000E2DFD2CCBCF81E08093D70080EA809348
:1002F000D80082E189BD09B400FEFDCF80E980937A
:10030000D8001092E000109216018CE08093E20079
:10031000789408958091160108958091160188239C
:1003200009F441C02FB7F89483E08093E9009091DD
:10033000E4009E5C33E08091E80085FD0EC02FBF95
:1003400080911601882379F18091E400891759F191
:100350002FB7F8943093E900EECF80910E0180938F
:10036000F1001092F10080910F018093F1008091D3
:1003700010018093F100809111018093F100809130
:1003800012018093F100809113018093F10080911C
:1003900014018093F1008AE38093E8001092170122
:1003A0002FBF80E008958FEF089560930E01809332
:1003B0000F01B3DF882329F410920E0110920F0170
:1003C000ACCF08951F920F920FB60F9211242F9366
:1003D0008F939F938091E1001092E100982F83FF0B
:1003E0000FC01092E90081E08093EB001092EC00C6
:1003F00082E28093ED0088E08093F0001092160175
:1004000092FF44C080911601882309F43FC02091D7
:100410000A012223D9F1809118018F5F809318017E
:1004200090E083709070892B89F583E08093E900D8
:100430008091E80085FF2AC0809117018F5F80932B
:100440001701821719F51092170180910E01809300
:10045000F1001092F10080910F018093F1008091E2
:1004600010018093F100809111018093F10080913F
:1004700012018093F100809113018093F10080912B
:1004800014018093F1008AE38093E8009F918F919B
:100490002F910F900FBE0F901F9018951F920F92E3
:1004A0000FB60F9211240F931F932F933F934F93E7
:1004B0005F936F937F938F939F93AF93BF93EF93CC
:1004C000FF931092E9008091E80083FF5BC14091A7
:1004D000F1003091F1008091F100682F70E02091DF
:1004E000F100922F80E0682B792B8091F100A82FEA
:1004F000B0E02091F100922F80E0A82BB92B109151
:10050000F1000091F10082EF8093E800363009F0AD
:100510005AC023EB30E0A90145505040F90137970C
:10052000859194918617970701F5FA018591949129
:100530008A179B07D1F49A012E5F3F4FF90165910D
:1005400074912E5F3F4FF9014491212F30E0902F9D
:1005500080E0282B392B2F3F310519F010F02FEFB9
:1005600030E0241758F4422F09C0295F3F4F495FFC
:100570005F4FF0E0243E3F0789F604C15EEF8091B3
:10058000E800282F30E0C90185709070892BB9F3FD
:1005900022FDFBC0342F413208F030E2232FCB0183
:1005A00006C0FC010196E491E093F1002150222362
:1005B000C1F7630F711D431B5093E8004423F9F604
:1005C0003032E9F2E2C0353061F48EEF8093E8001A
:1005D0008091E80080FFFCCF862F80688093E30045
:1005E000D4C0393031F5442309F071C0609316014D
:1005F0008EEF8093E8008DED90E021E02093E900FC
:10060000FC010196E491E093EB00EE2369F0AC016C
:100610004F5F5F4FFC0184918093EC00CA0101960B
:10062000FA0134913093ED002F5F253039F78EE1D8
:1006300049C0383051F4403809F049C08091E80091
:1006400080FFFCCF809116017BC03323D1F48091D1
:10065000E80080FFFCCF423811F080E00DC0A0938D
:10066000E9008091EB0090E025E0969587952A952A
:10067000E1F781701092E9008093F1001092F1008F
:100680007DC0313011F0333011F5423001F5611584
:100690007105E9F42A2F2F77822F81508430B8F426
:1006A0008EEF8093E8002093E900333009F46AC0AC
:1006B00089E18093EB0081E090E002C0880F991FF0
:1006C0002A95E2F78093EA001092EA005EC0AB2B15
:1006D00009F058C0413AB9F5313009F58091E80088
:1006E00080FFFCCF80910E018093F1001092F10009
:1006F00080910F018093F100809110018093F100AF
:10070000809111018093F100809112018093F1009A
:10071000809113018093F1008091140111C0323057
:1007200039F48091E80080FFFCCF80910A0108C075
:10073000333041F58091E80080FFFCCF80910B01C0
:100740008093F1001BC04132E9F4393061F48091AB
:10075000E80082FFFCCF8091F100809315018BEFC0
:100760008093E8000BC03A3029F470930A0110928C
:10077000170104C03B3031F460930B018EEF80937E
:10078000E80003C081E28093EB00FF91EF91BF91FD
:10079000AF919F918F917F916F915F914F913F9119
:1007A0002F911F910F910F900FBE0F901F901895D2
:0407B000F894FFCFEB
:0C07B400271E1F202122232425267D0162
:00000001FF
